:020000040808EA
:10000000000008081C500808000005000A0005014F
:080010000402350100000000AC
:100018009449080809480A4908B5884205D0094A98
:10002800824202D0121A04F09EFB0748074A0021B8
:10003800121A04F0A3FB064808BD00BF0004002004
:10004800844F0808700400207004002084120020E7
:100058008412002070B503F0DFF8074B074C1E46EA
:10006800E41AA4080025A54204D056F8253098477C
:100078000135F8E770BD00BF044F0808784F08083D
:1000880000F00CBA08B500F00BFBBDE8084003F01F
:1000980085B802F03DBD02F043BD0078B0FA80F0AB
:1000A8004009704701230370704710687047037C4C
:1000B800024603F0080303F0FF002BB1D36A506A2D
:1000C800181A48BF6FF00040704700002DE9F84F3C
:1000D800354EDFF808B13468DBF80000DFF800A11E
:1000E80090FBF4F004F0A6F8304BDFF8F890C3E981
:1000F8000001DAF80000DFF8F08090FBF4F004F07B
:1001080099F82B4B2B4FC3E90001D9F800002A4D71
:1001180090FBF4F004F08EF8284BC3E90001D8F8FE
:10012800000090FBF4F004F085F8254BC3E90001CA
:10013800386890FBF4F004F07DF8224BC3E9000125
:10014800286890FBF4F004F075F81F4BC3E9000130
:10015800686890FBF4F004F06DF81C4BC3E90001EB
:10016800A86890FBF4F004F065F8194BC3E90001A6
:10017800E86890FBF4F004F05DF8164B0122C3E93F
:100188000001154B1A7000232B606B60AB60EB60AD
:10019800CBF80030CAF80030C9F80030C8F8003091
:1001A8003B603360BDE8F88F880C0020600C0020AD
:1001B800680C0020340A0020540A0020700C00202B
:1001C800780C0020800C0020880A0020900A00206B
:1001D800980A0020A00A0020AC0A0020FC08002091
:1001E800000900200409002008090020014B012211
:1001F8001A707047F808002003681847012A02D0CF
:10020800022A02D004E0016002E00B6800B103603A
:1002180000207047704700007FB5024613790846F2
:10022800956833B13DB90C4904B0BDE8704002F09F
:100238009DBE0A4B00E00A4B167B0A4C0A49527BCA
:10024800012E08BF2146029201910095074A00211C
:1002580002F0D5FE04B070BD014A0808E44B080856
:10026800F0490808F9490808FD490808174A080824
:10027800103001F079B9103001F08EB8103001F06B
:10028800FFB907B502AB03F8011D0122194610306A
:1002980001F0F6F903B05DF804FB10B50446FFF76A
:1002A800FAFE204610BD10B50123037143690446C8
:1002B80013B183690C3098470023237110BD07B52B
:1002C800002302A941F8043D02F0D6FA20B90198AA
:1002D80010B103689B68984703B05DF804FB10B53C
:1002E8008368044613B1032201469847204610BD8F
:1002F800F0B504468E461549002585B00571856020
:100308004561016002AF92E8030087E8030004F149
:100318000C0696E8030082E8030097E8030086E8E5
:1003280003009168606990606161D168A069D060DC
:10033800A1618DE82800064A2346714604F10800A9
:1003480002F08AFA204605B0F0BD00BFBC49080893
:10035800C702080807B58068002338B18DE80A008D
:10036800022102F091FAB0FA80F0400903B05DF87A
:1003780004FB73B5144606460D4600222146FFF7D6
:10038800E9FFB068002340B1019300952246194661
:1003980002F07AFAB0FA80F0400902B070BD0000AD
:1003A80038B50E4B0446036083688BB100226FF0AA
:1003B8000041FFF7CFFF237903F0FF051BB10120B0
:1003C80002F086FEF7E72946A06802F04DFAA5601C
:1003D80004F10C00FFF783FF204638BDBC4908082C
:1003E80010B50446FFF7DCFF2046FFF754FE204611
:1003F80010BD07B501220DF1070100F01AFF012811
:100408000CBF9DF807004FF0FF3003B05DF804FB08
:1004180008B51030FFF7EDFF08BD000030B51D4BE3
:1004280085B00093137900F58C658DF804309368D6
:1004380004460293137B8DF80C30537B0A468DF8E3
:100448000D3000F26C416B46284601F05FFCF0B1BC
:10045800256004F23C45284601F0BCF801212046FD
:1004680001F0FDFA014668B12146284600F0C9FEB0
:1004780068B194F83C3413F0700316BF064B184665
:100488001D6005E0204601F0EAFA0028ECD10020C2
:1004980005B030BDB0490808A80C002070B58EB072
:1004A80003F0FEF94FF4165103F0DAF903F0C8FA35
:1004B8004FF4165103F0BEFA00226FF000413D4898
:1004C800FFF757FF00226FF000413B48FFF751FF4D
:1004D8003A4B0021012408461C7003F04FFB002111
:1004E800204603F04BFB0021022003F047FB0021CC
:1004F800032003F043FB324B2146188803F03EFBF0
:100508000823ADF804302F4B042202932E4901AB87
:100518002E4802F0DDFA03F0C3F903F0A8F9002829
:10052800F9D04FF47A7002F0D3FD03F0B9F92849F5
:1005380002F01CFD274B00240193274B01AA0393CB
:100548000C21012325488DF808408DF810308DF8CE
:100558001140FFF763FF28B903F0A2F9204902F020
:1005680018FD25E003F09CF91E4902F012FD4FF436
:100578007A731D4E03931D4B8DF814408DF815406A
:10058800029401931A4A44F202231A4905A806F173
:10059800100505AC01F025F80FCC0FC50FCC0FC521
:1005A80023682B60029B7360039BB360049BF3601A
:1005B8000EB070BD380A00208C0C0020AD0A002057
:1005C80000040020B300080818090020354A08086C
:1005D800404A0808B049080880F0FA02740400206C
:1005E800584A08086F4A0808000A0020D049080835
:1005F800894A0808B00800202DE9D043A6B002F0C7
:100608001BF9214C2368C01A204B984238D902F0B4
:1006180013F920601E4C23786BB302F00DF9636B5D
:10062800C01A42F20F73984225D8204601F064FEA2
:10063800064620460F4601F07FFE0023804684F8D8
:100648007930D4F88000894603F0F4FD0022114B7C
:1006580003F080FFCDE90289CDE90401CDE9006707
:100668000D4A802106A802F073FA03F019F906A9C9
:1006780002F08FFC04E0094906A804F0B9F8F4E791
:1006880026B0BDE8D08300BF640A00209FBB0D00E0
:100698002809002000005940954A08089E4A080881
:1006A800F0B5A24B95B01A781F46002A4FD0A04B40
:1006B800A049D3E90023CDE904239F4B9F48D3E900
:1006C8000023CDE902239E4B9E4ED3E90023CDE9BA
:1006D80000239D4B06F11005D3E9002302F030FA00
:1006E8004FF47A720992994A002307929849994AD5
:1006F8000BA80BAC8DF82C308DF82D30089300F03A
:1007080070FF0FCC0FC50FCC0FC523682B60089B5B
:100718007360099BB3600A9BF360337C83B103F079
:10072800BFF88D4902F022FC8449304602F031FCC2
:10073800A5F1200000F04EFF03F0B2F8874902E06F
:1007480003F0AEF8864902F024FC00233B70854F85
:100758003B78002B72D04FF47A727A4E09927B4A1A
:10076800002307927A49804A0BA806F110050BACC2
:100778008DF82C308DF82D30089300F032FF0FCC17
:100788000FC50FCC0FC523682B60089B7360099BAE
:10079800B3600A9BF360337C002B48D003F080F8E9
:1007A800724902F0F6FB724D6648FFF780FCF0B123
:1007B80003F076F8036804466E489E68FFF719FE52
:1007C800C1B22046B0476B48FFF713FE0A22014624
:1007D80007A802F0A2FB07A9654802F085FB07A855
:1007E80002F00BFB2968644802F0AAF9DCE7634BC6
:1007F800614A1B7862498DF8003007A83C2302F053
:1008080055FE089C7CB16368013B63605BB9236853
:1008180020469B689847A368013BA3601BB92368DF
:100828002046DB689847534800F0D4FE04E003F004
:1008380037F8544902F0ADFB00233B7003F000F990
:1008480003681B69984700280FDDFFF7D5FE03F002
:10085800F7F803685B699847C1B24B4801F00AFF93
:100868000028EBD0FFF7C8FEE8E701F0E5FF474DA9
:100878002B68C01A642857D90B2003F0BCF9444AE6
:10088800444C1368184410600A2003F0B4F9424A33
:100898001368184410601D2003F0ADF93F4A13682F
:1008A800184410601C2003F0A6F93D4A1368184448
:1008B80010601B2003F09FF93A4A1368184410602F
:1008C800002003F085F9236818442060012003F014
:1008D8007FF9636818446060022003F079F9A3681F
:1008E8001844A060032003F073F9E3682E4A184403
:1008F8001368E0600133136001F09EFF28602B4805
:100908002B4D0746002350F8232054F823109E004F
:10091800914218BF55F82320B9511CBF013245F840
:1009280023200133042BEED115B0F0BDAC0A002012
:10093800600C0020AA4A0808880A0020AE0A002095
:10094800680A0020000A002010090020D049080881
:10095800B0080020E24A0808EE4A0808044B0808D4
:100968002B4B0808F8080020894A08084D4B08084E
:10097800880B0020100A0020980B0020800A002015
:10098800574B0808684B080828090020A80A0020C7
:10099800FC080020540A0020000900200409002057
:1009A80008090020340A0020880C0020700A002062
:1009B800780B00202DE9F043404B85B000241C70D3
:1009C80001F0B2FE3E4B642283F860243D4A3E4863
:1009D800C3F870243D4A01263D4DDC7183F83C4440
:1009E80083F83D4483F86A4483F87464C3F8784410
:1009F80083F87C4483F87D44C3F86C244FF47A73FD
:100A08008360344B2A46047444744460324903605A
:100A180003F06EF92146304602F026F82F4801F01F
:100A280099FB01F009FFDFF8E0802D4B2D4E18608F
:100A380041462D4F304602F027FA30462B4E2A46C3
:100A4800394603F055F94146304602F01DFA2A4668
:100A58003946304603F04CF9DFF8B090244BDFF804
:100A6800B080244E6A4600934EF660212346224FFA
:100A780048460296CDF80C80FFF73AFC6846FFF727
:100A88002EFC2A463946484603F032F902961B4B9B
:100A98001B4E6A4600931B4923463046CDF80C800E
:100AA800FFF726FC6846FFF71AFC2A463946304607
:100AB80003F01EF905B0BDE8F08300BF800A0020EE
:100AC80074040020B0490808000A00209011002092
:100AD80070040020D04908081D02080828090020D1
:100AE800A80A002018090020032E0808880B0020F7
:100AF800D500080805020808A9030808F501080830
:100B08008C0C002020BF0200E44B0808380A0020A3
:100B18000102080801F008BE01F006BE10B504463F
:100B2800243000F08DFE28B104F50C70BDE81040AB
:100B380000F086BE10BD411E00F10A0200204308E5
:100B480043EAC01011F8013F18448A4200F0FF0040
:100B5800F5D170472DE9F0470378441C202B01D1CB
:100B68002046F9E70546704F88602C1A2E4615F87E
:100B7800013B0BB32F2B01D1031917E05C2B02D1DA
:100B88000020BDE8F087A3F12204E4B21D2C03D8AD
:100B980027FA04F4E407F3D403F0BF043C2CEFD0A5
:100BA800203B5E2BE1D9EBE72F2D05D11E4613F82C
:100BB800015B202DF8D1F9E7166003199842C0EBC4
:100BC800030809D013F8012D2E2AF7D0202AF5D0D2
:100BD800B8F1FF0FD4DC01E04FF00008C1F8048041
:100BE80001F10C0301F11702202403F8014F93428D
:100BF800FBD103461A1A13F8014B2E2CFAD0202CDD
:100C0800F8D0B2FA82F408F1FF366409731C07D1F0
:100C180000274FF0070E3D46BA464FF0080909E095
:100C2800835D2E2BF4D0013EF0E7835C202B04D1AA
:100C3800002401324245F8DB4BE02E2B02D1B242B0
:100C4800F6D103E0222B17D07C2B15D0A3F12A0C68
:100C5800BCF1050F01D82D2B0ED1A3F13A0CBCF134
:100C6800050F09D9A3F15B0CBCF1020F04D9A3F15C
:100C7800210CBCF15D0F02D9B2420ED149E0B2425B
:100C880047D0754521D8A3F1610CBCF1190F08D8DC
:100C9800203BDBB249EA07070AE0754515D800246E
:100CA8005F23A3F1410CBCF1190F98BF49EA0A0A66
:100CB80005F1010C5FFA8CFC0D44BCF1060F6B7357
:100CC80001D881F80CC06546B3E7BEF10A0F17D109
:100CD80000244B7B202B3FF453AF3CB11AEA070F9B
:100CE80018BF02270F700120BDE8F0870B7B012099
:100CF800087019447E234B7331238B73BDE8F0874A
:100D0800B242E5DC32464FF00A0E08254FF01009D2
:100D18008EE7BEF10A0FDBD032464FF00A0E0825E7
:100D28004FF0100985E700BF010100312DE9F843B4
:100D380006460D4691F80C9002247E2701F10D0815
:100D48006968AA6863189BB21144914206D012F8E8
:100D5800010B03EB431343409BB2F6E7B9F1030FD2
:100D680028BF4FF0030909F10402D2B203F00F01C2
:100D7800A818013A0929D2B294BF303137319145C8
:100D880041734FEA1313F1D305EB09035F73002195
:100D9800304600F031FB0121304600F010FB0146DF
:100DA80028B97078B0FA80F04009BDE8F883037874
:100DB8004BB1C37A1B07EED40B22404603F0C4FCA8
:100DC8000028E8D102E00120BDE8F8830134A4B28C
:100DD800642CB5D1BDE8F8832DE9F04F9B460B781C
:100DE80089B013F0700F05900E46914601D100208E
:100DF800A0E1059B1B78002BF9D153680293137867
:100E08009B0700F08D81029B0D270C33B3FBF7F78E
:100E18000137FFB24FF000080021304600F0ECFA2D
:100E280044464346454609F10D02CDF80C80CDF8FD
:100E3800108006927269012130460793C2F34F1A57
:100E480000F0BDFA079B20B97378002B00F0908062
:100E5800CDE70278E52A00D042B9002C08BFD04679
:100E6800BC423CBF0134E4B222B981E0BC4238BF85
:100E7800002403E0E52A01D10025DBE72E2AFBD078
:100E8800C17A0F2952D13DB95106D3D5437B02F01F
:100E98001F0503932B4607E0013BDBB29A42EBD1D7
:100EA800427B03999142E7D15A1E4FF00D0C0CFB7F
:100EB80002FC029A6245DFD94FF0000EBEF1040F22
:100EC8005FFA8EF204D800EB4E02B2F801200CE073
:100ED8000A2A95BF0EF1FF320EF1010200EB420221
:100EE80000EB420294BFD28892880299614503D1EF
:100EF800002A18BF00259DE7FF2ABDD8D2B2A2F16B
:100F080041011929D9F8081098BF203211F80C109E
:100F18000CF1010AA1F1410C98BFD2B2BCF1190F32
:100F28009CBF2031C9B29142A6D1FBE00907A3D4E6
:100F38004DB1012B7FF45BAFFFF7FDFD039B8342AF
:100F48007FF455AF0FE00B220699079303F0FCFBE3
:100F5800079B00287FF46EAF99F80020D20702D5CE
:100F68000122049266E71BF4006F00F0D1803EE78F
:100F78001BF4007F3FF43BAF0BF00303013B012B55
:100F88003FF635AF002C08BFD046BC4202D3049BC5
:100F9800CBB91FE00021304600F011FA10B9737880
:100FA8005BB124E70134E4B2EFE7B3681B79012BA6
:100FB800EDD81034E4B2A742E9D9304600F0D2F8AF
:100FC8000028F2D113E749463046FFF7AFFE002864
:100FD8003FF40DAF4FEA4811304600F00DFA0028F3
:100FE8003FF405AF7D1EEDB22C464FF0000A4FF0DE
:100FF8000F0841E00021304600F0E1F907460028DB
:101008003FF4F5AEB268AC4292F8243043F00103E5
:1010180082F8243014BF224644F04002027080F85F
:101028000B8080F80CA009F10D000392FFF783FDF7
:10103800039A787387F81AA087F81BA002F01F029A
:101048000D23013AD9F808E05A4300230299914246
:1010580015D91EF80210042B5FFA83FC03F1010076
:1010680013D807EB4303A3F801100D2802F101027E
:101078000346EBD1013CE4B2002CBBD10EE014BF17
:101088004FF0FF31002189B2E5E7BCF10A0F94BFA8
:1010980007EB430307EB40039980E6E773692146B2
:1010A8003046C3F34F1A00F08AF9074600283FF488
:1010B8009EAE2022214603F061FB4B4653F80D2FCC
:1010C8003A605A687A601A893A819B7ABB7299F8B1
:1010D800003003F018033B73184B1B682BB107F162
:1010E8000E0107F11000984706E021233B742823DE
:1010F8007B740823BC73FB733B8A7B823B83FB892D
:10110800FB82B26892F8243043F0010382F824305D
:1011180000955B4652463146059800F0B6F909E05D
:10112800012777E60EF1010EBEF10D0F3FF482AEF6
:10113800D446C3E609B0BDE8F08F00BFAC0C002070
:1011480001F0F2BA01F0F0BA01F0EEBA01F0ECBA2F
:10115800837800F1100243F004038370016980680A
:1011680000F024BC2DE9F0410378044603F0200385
:1011780003F0FF050BB100262EE04269184B9A4296
:10118800F9D8FFF7E5FF06460028F4D02169A068E2
:1011980000F0A1FB0746A06805223946243000F07C
:1011A80076FB80460028E6D029464FF4007203F00B
:1011B800E5FA0125A3681A79AA4209D94246E9192C
:1011C800186800F0E1FE0028D5D00135EDB2F1E74E
:1011D800636903EB422363613046BDE8F08100BFD9
:1011E800FFFD1F0010B5044680680A462430A16937
:1011F80000F04DFB20B1A38803F00F0300EB431070
:1012080010BD70B5047805460E4684B924222146DF
:1012180003F0B4FAAE60F379102B03D0202B06D17B
:10122800402300E0202301202B70A87070BD00200F
:1012380070BD2DE9F74F03780446894615464BB132
:101248008278D10706D50CE05A46216900F049FB9F
:1012580000283DDA63784FF0FF3043F002036370F3
:1012680097E01A0703D5E36962699B1A07E09A06B3
:1012780008D5A3681A896369C3EB42139BB29D42E0
:1012880028BF1D462E464FF0000804F1100B002E13
:1012980035D02278636912F0200FC3F3080AA068DA
:1012A8004FEA532102D0036A19441DE090F80580E3
:1012B80001EA0808BAF1000F10D1B8F1000F0DD1FA
:1012C800002BC1D153064CBF036A236A236105E092
:1012D80004D1237813F0700F11D1BBE72169A068FE
:1012E80000F0F9FA08EB0001A068BAF1000F35D157
:1012F800B6F5007F32D3C36A994202D12EE0A81B0B
:1013080047E0B6F5806F1BD322784FEA562A970636
:1013180006D40279C8EB0202D2B2924528BF92469F
:1013280099424FEA4A2707D2A06853464A460068BE
:1013380000F0E8FD60B98DE75344994221D3F3E703
:101348004A46006800F096FD002883D04FF40077E5
:101358006369B9443B446361F61B98E70022243073
:1013680000F095FA00283FF475AFCAF50077B74248
:1013780028BF374600EB0A013A46484603F0F3F91E
:10138800E6E72430019100F05BFA01990028CBD1FF
:1013980060E703B0BDE8F08F73B501220DF10701D6
:1013A800044646690569FFF744FF012809BF9DF80F
:1013B80007004FF0FF306661256102B070BD37B598
:1013C80043690446C3F3431505B169B901220DF118
:1013D80007012046FFF72DFF40B2012801D0002069
:1013E80008E063691F3300E02033A0686361303090
:1013F80000EB451003B030BD2DE9F0410E460178F1
:1014080004460769002939D04569B5423AD00EB972
:10141800066131E00B0703D5C3699E422ED807E069
:10142800880605D5A3681B89B6EB431F26D823E099
:10143800D4F808E06A1E9EF8063003F10900731E0E
:10144800C240C3409A4200D84DB94A064CBFDEF8A4
:101458002020226A22611D4604F110080AE09B1A26
:10146800F9E742462169A06800F03BFA002805F137
:10147800FF3503DD002DF4D1666103E0276100200C
:10148800BDE8F0810120BDE8F081F8B50F460446BB
:101498001546002124221E4603F070F9B868A5807D
:1014A800A0603B6A05F00F0200F130015201E360D1
:1014B8001144CB7A1D074CD4831893F83B3003F0C2
:1014C80017032370C97A11F0180F04BF43F00803FB
:1014D80023709DF81830E37006F00303012B09D040
:1014E800022B05D0002B34D1710532D4012302E040
:1014F800032300E00223A370A1788B0703D5237888
:1015080013F0110F25D14BB216F4005F06F0080155
:1015180014BF6FF07F07002719433943A170C36ACE
:101528000244A361B2F84410B2F84A30750543EAA0
:10153800014104D581B100F074FA68B909E021626B
:10154800D36CE36173040CD5E1692046FFF754FFBF
:1015580038B900202070F8BDA37843F00403A370C5
:10156800F0E70120F8BD000038B5037804460BB950
:10157800012038BD83785A0723D50121FFF732FEB1
:10158800054628B96378002043F00103637038BD2D
:101598000378E52BF6D023781B0744BFE369C361C2
:1015A800238C4383638C8382094B1B682BB100F126
:1015B8001601183098472B8B6B82A37823F004030D
:1015C800A370A068FFF7AAFA0028DBD0D0E700BF15
:1015D800AC0C002010B50446FFF7C6FF00232370AB
:1015E80010BDF0B51F4693B000238DF824308DF858
:1015F8002530037806460C4601920BB100203DE0E9
:101608000B7813F0700FF9D013782F2B12D1019BA0
:101618001A782F2A02D101330193F8E7A1681AB981
:101628003046FFF7EEFD29E009A8FFF7EAFD00289C
:10163800E4D009AC01AA03A90198FFF78BFA0028A6
:10164800DCD0019B1B789BB1002303AA21463046BE
:10165800FFF7C2FB0028D1D0354609AC0FCD0FC427
:101668000FCD0FC42B6830462360FFF7B3FFE0E7C8
:101678003B4603AA21463046FFF7AEFB13B0F0BD48
:101688002DE9F0470378894619070446904608D59E
:1016980083789A0705D51B070BD5E169FFF7ACFEE0
:1016A80038B963784FF0FF3043F001036370BDE849
:1016B800F0876369DB439845F3D846464FF0000A44
:1016C8006369002E7FD0A068C3F30807427912EA45
:1016D80053251CD1DFB9216971B104F1100200F062
:1016E80000F90028DDDB40F08D802046FFF730FD53
:1016F800002840F08780D4E7236A3BB92046FFF7EB
:1017080027FD0028CDD02369236200E023612169E9
:10171800A06800F0E0F8291817B9B6F5007F21D2C3
:10172800C7F50075B54228BF354637B96369E26920
:10173800934234BF0122052200E00122A068243030
:1017480000F0A5F80028ACD038442A4649462F4472
:1017580003F009F8B7F5007F2FD1A068243000F016
:101768006FF816E0B6F5806FA06814D30279730A93
:10177800521BD2B2934228BF1346C26A5D029142FD
:1017880002D31A44914237D3A7684A46386800F012
:101798006DFC90B985E7C36A4A46994202BF4FF08B
:1017A800FF3380F824A0C362A368186800F0ECFB3C
:1017B80000283FF476AF4FF400756369A9442B44C1
:1017C8006361761B7CE7E269934201D9E36102E039
:1017D8000F4B1B681BB1A37843F00403A37094F963
:1017E8000230002B02DB4046BDE8F0872046FFF7B9
:1017F800BBFE0028F7D154E74FF0FF3280F824A051
:10180800C262C1E72169A06800F065F8014684E773
:10181800AC0C002000F088BF70B505460C460846A1
:1018280049B103F008F82B68024621462846BDE86E
:101838007040DB68184770BD00F076BF00F074BFD9
:1018480070B503780446DA071ED5436800F10C0624
:1018580081683246186800F097FB054608B90025EC
:1018680013E023789B0704D4237823F00103237023
:101878000BE06368A068196932460144186800F0F3
:1018880083FB0028F0D1EAE70125284670BD70B532
:10189800836804468B420E46154614D0FFF7D0FFE6
:1018A80008B9002070BD6B0703D500232370A6601C
:1018B80009E0636804F10C023146186800F0DAFAAE
:1018C8000028F2D1EDE72046237805F003051D43F3
:1018D80000F80C5B70BD837902394069994008446F
:1018E8007047012970B505460C46164602D84FF0D8
:1018F800FF3070BDC3699942F9D8C379202B10D144
:101908008169022201EBD41100F50C70FFF7BFFFCB
:101918000028ECD004F07F0450F8243023F0704302
:101928000FE0102BE3D18369C1F307210222194488
:1019380000F50C70FFF7ABFF0028D8D0E4B230F800
:101948001430EA6993429ABF33600120002070BDC9
:10195800012938B50C46154601D8002038BDC369A1
:101968009942FAD8C379202B0ED18169032201EB61
:10197800D41100F50C70FFF78AFF0028EDD004F0B1
:101988007F0440F824500FE0102BE6D18369C1F39F
:1019980007210322194400F50C70FFF778FF00288F
:1019A800DBD0E4B220F81450012038BD2DE9F34112
:1019B800C46805468C420E46904607D20C4600275E
:1019C800EB6901349C4203D9CFB9EC680127F7E7EA
:1019D800A64214D001AA21462846FFF782FF002814
:1019E8000DDBEDD0019B002BEAD107B1EC606FF065
:1019F800704221462846FFF7ABFF074608B9002783
:101A08000BE016B9C8F8004007E0224631462846E0
:101A1800FFF79EFF0028F5D1F1E7384602B0BDE890
:101A2800F08173B505460C4601AA21462846FFF702
:101A380058FF061E01DA00200FE000222146284642
:101A4800FFF786FF0028F6D0EB689C429CBF04F1A4
:101A5800FF34EC60019C002EE6D102B070BD70B579
:101A6800044601230022C3604FF0FF33C2710D46C4
:101A7800A06280F82420C362C4F8340280F83022BF
:101A8800C0F83832A1B104295DD811462430FFF7D7
:101A9800FEFE002857D000EB051393F8AE315B0625
:101AA80051D11B3500EB0515D5F80650002D4AD04D
:101AB8000022294604F12400FFF7E9FE002842D05D
:101AC800B0F80B30B3F5007F3DD1037C022B3AD13F
:101AD800C389002B37D0417B09264B1E6371002335
:101AE800A371217101238B4207D0013E2BD0A2792B
:101AF8005B000132DBB2A271F5E7C28A02B9426A21
:101B08002261C6892E44A661B0F8113006EB420165
:101B180023812162B0F81120520102F2FF1201EB79
:101B280062226261B0F8133003B9036AAD1A2B441C
:101B3800A57923FA05F56B1CE36140F6F4739D4221
:101B480003D80C23E371002070BD4FF6F4739D4257
:101B580089BFC36A102323622023E371012070BD6B
:101B680000F0E2BD00F0E0BD00F0DEBD70B50E464D
:101B7800154600F059FE0C4C2368C01A0B4B9842CE
:101B880008D900F059FE0A4B186000F0A9FF00F0D0
:101B98004BFE206000F050FE80B2801BA842D4BFEC
:101BA8000020012070BD00BFB00C0020A0860100FD
:101BB800C011002038B5057A04464DB9406800F0D8
:101BC8007DFA63682946187D01F0E9FF0123237235
:101BD80038BD10B5037A04466BB143680121187DFE
:101BE80001F0DDFFFF21606800F09AFA606800F0FC
:101BF80079FA0023237210BDF8B504460D4616463F
:101C080000F01AFE87B2606800F06FFAFF28607271
:101C180009D14FF47A7239462046FFF7A7FF00280A
:101C2800F1D055230BE0FE2801D0502307E03246BF
:101C38002946606800F05EFA607230B16023204681
:101C48002370FFF7C6FF0020F8BD606800F04DFA6A
:101C5800606800F04AFA0120F8BD70B504460E46E7
:101C680000F0EAFD85B2324629462046FFF77EFF9E
:101C780030B9606800F039FAFF28F4D1012070BD4E
:101C8800002070BDF7B5037A04460D4601920BB9E2
:101C9800FFF790FF25B14FF496712046FFF7DDFF5F
:101CA80045F04001606800F03BFA0DF107060DF1C0
:101CB800030716F80119606800F032FABE42F8D13D
:101CC800002D0CBF95218721606800F029FA606813
:101CD80000F00BFA0B25606800F007FA0306607243
:101CE80003D5013D15F0FF05F5D103B0F0BD70B582
:101CF80004460D46164637210022FFF7C3FF324639
:101D080029462046BDE87040FFF7BCBF2DE9F041E9
:101D180000250572057085724160044690461E468E
:101D280000F08AFD41460746606800F0CBF9636819
:101D38004F4A4FF001081D72DA605D7483F8108015
:101D48002046FFF737FF63684146187D01F027FFFB
:101D58000A25FF216068013D00F0E2F915F0FF0552
:101D6800F7D163682946187D01F019FF0A2500227A
:101D780011462046FFF786FF0128804612D0013D14
:101D880015F0FF0501D1202357E0FD21606800F020
:101D9800C7F94FF40278606800F0A7F9B8F10108B4
:101DA800F9D1E4E74FF4D57208212046FFF76AFF1E
:101DB800052802D184F80A800FE00425606800F045
:101DC80094F9013D15F0FF056072F7D1AA2802D1F8
:101DD8000223A37201E025232FE0A37ABFB2022BCE
:101DE8000CBF4FF0804500252A4629212046FFF7E1
:101DF8007EFF024648B14FF4FA6239462046FFF7A3
:101E0800B5FE0028F0D0432317E0A37A022B0ED0AA
:101E18002046FFF7DEFE6368B0683479317B727B59
:101E2800D8601C7219745A740120BDE8F0813A21F7
:101E38002046FFF727FF38B1372320462370FFF7E6
:101E4800C8FE0020BDE8F081606800F04EF900F09F
:101E5800C000C02804BF0323A372606800F045F9DE
:101E6800606800F042F9606800F03FF9D0E700BF11
:101E780090D0030038B5837A1546032B18BF490262
:101E88000A4611210446FFF7FDFE10B130232370E6
:101E98000BE029464FF400722046FFF7ADFE0546D9
:101EA80018B12046FFF795FE03E02046FFF791FEA4
:101EB8000025284638BD10B5837A0A46032B18BF7B
:101EC8004A0212210446FFF7DDFE30B131232046D5
:101ED8002370FFF77EFE002010BD012010BD10B555
:101EE80000220C210446FFF7CDFE30B128232046FE
:101EF8002370FFF76EFE002010BD2046FFF769FE35
:101F0800012010BDF8B5054616461F46FFF7D3FF5A
:101F180098B10024A3B29F4206EB442108D94FF49C
:101F280000722846FFF768FE01340028F2D104E069
:101F38002846BDE8F840FFF7D2BF0020F8BD38B505
:101F480004461546406800F0EBF84FF40072294645
:101F5800606800F0E9F8FF21606800F0E1F8FF210F
:101F6800606800F0DDF8606800F0BFF8607200F0AB
:101F78001F00052806D0572320462370FFF729FEA7
:101F8800002038BD012038BD70B5837A1546032B73
:101F980018BF49020A4618210446FFF773FE064691
:101FA80008B132231DE02A46FE212046FFF7C7FF6D
:101FB800C0B14FF4FA612046FFF74FFE054608B955
:101FC8005A230EE032460D212046FFF75BFE38B952
:101FD800606800F08AF818B92046FFF7FAFD05E0B6
:101FE800292323702046FFF7F4FD0025284670BDFD
:101FF80038B50D464FF4FA610446FFF72EFE10B9C6
:102008005B23237005E02A46FC212046FFF797FF53
:1020180018B92046FFF7DDFD002038BD10B5837ADA
:102028000A46032B18BF4A0219210446FFF72AFE65
:1020380030B1332320462370FFF7CBFD002010BDBD
:10204800012010BD38B54FF4FA610446FFF705FECC
:10205800054620B1FD21606800F062F801E05623D2
:1020680023702046FFF7B5FD284638BDF8B505466C
:1020780016461F46FFF7D2FF70B10024BC4206EB9C
:102088004421284604D0FFF7B3FF28B10134F5E70F
:10209800BDE8F840FFF7D6BF2846FFF79AFD0020B5
:1020A800F8BD00F041BB00F03FBB00F03DBB0000B5
:1020B800014B01221A707047B40C0020011D006802
:1020C80000F0A0BD10B504460175006800F07CFD65
:1020D800207D012101F052FD207D0121BDE8104045
:1020E80001F05DBD006800F074BDFF21006800F0DC
:1020F800F9BD000037B5084B00250093074C13467F
:1021080000680A462946257000F0F2FD2378002B66
:10211800FCD0002003B030BDB9200808B40C002062
:10212800006800F0DFBD000037B5074B00250093BD
:10213800064C134600682A46257000F0D9FD23781E
:10214800002BFCD003B030BDB9200808B40C002027
:1021580000F0EABA00220221027042708280826096
:1021680002730282426102768283026280F824202E
:102178000285C26280F8302080F8382080F8392043
:10218800C26380F8482080F84920C26480F858204B
:1021980080F85920026680F8682080F86920026774
:1021A80080F8782080F87920C0F8802080F888208E
:1021B80080F88920C0F8902080F8982080F899202D
:1021C800C0F8A02080F8A82080F8A92080F8B910CD
:1021D80080F8BA2080F8BB2080F8BC20C0F8C02066
:1021E800C0F8C420C0F8C820C0F8CC20C0F8D0205F
:1021F800C0F8D42080F8AA207047A1F14103052B2C
:1022080002D8A1F137007047A1F16103052B94BFF3
:10221800A1F15700A1F13000704738B504460578A0
:102228002D2D08BF0134204602F07CFA6423584360
:10223800224614F8013BA3F130010929F8D92E2BC5
:102248000BD15378303B092B07D80A2101FB030037
:102258009378303B092B98BFC0182D2D08BF4042FA
:1022680038BD000038B504460D4602F05BFA642319
:10227800B0FBF3F203FB1200114B2A8043432046C4
:1022880002780446A2F13001092900F10100F7D9CA
:102298002E2A0BD10A490A2014F8012F303A092AAC
:1022A80004D8B1FBF0F101FB0233F5E703EB83033C
:1022B80001330322B3FBF2F36B6000232B7238BDAA
:1022C80080969800034610B553F81C2F04464260C8
:1022D8005A6882601B7A0373034653F8282F0261F9
:1022E8005A6842611B7A037600F0A6FA01236063FC
:1022F8006370237010BD0000D0B5002304464370FE
:10230800806801F087FF0AA3D3E9002302F022F9CD
:102318000646A0880F4601F08DFF0B460246394657
:10232800304601F03BFE237B0BB101F10041D0BDEB
:102338000000000065CDCD41D0B5002304464370B0
:10234800406901F067FF0AA3D3E9002302F002F90C
:102358000646208A0F4601F06DFF0B4602463946B5
:10236800304601F01BFE237E0BB101F10041D0BDC8
:102378000000000065CDCD4110B583680446436078
:1023880000F05AFA0123E0606370237010BD10B5A5
:1023980083680446436000F04FFA0123E0606370ED
:1023A800237010BD10B504460846FFF736FFA0603D
:1023B80010BD10B50446084602F0B4F9A06010BD7F
:1023C80010B5C3680446836000F036FA01236060E4
:1023D8006370237010BD10B504460846FFF71DFF53
:1023E800E06010BD10B5C3680446836000F024FAAD
:1023F800012360606370237010BD10B50446084661
:1024080002F090F9E06010BD10B5014604461030A6
:1024180002F0EEF900F010FA0123206284F825306A
:1024280084F8243010BD102202F00DBAF8B590F8E7
:10243800A9500446002D67D090F8AA10FFF7DDFEDA
:1024480094F8AB1002462046FFF7D7FE94F8A83060
:1024580000EB0210C0B283424FD1D4F8D43001331C
:10246800C4F8D43094F8BC3023B1D4F8CC3001335C
:10247800C4F8CC3094F8B930B3B1012B2AD104F1A7
:102488003800FFF779FF04F14800FFF780FF94F860
:10249800BC30FBB12046FFF715FF04F15800FFF7E9
:1024A8008FFF04F1680013E004F14800FFF76FFFA5
:1024B80094F8BC3033B12046FFF704FF04F17800EC
:1024C800FFF77EFF04F18800FFF78CFF04F1980006
:1024D800FFF776FFD4F8C460002E00F0C580D4F86A
:1024E800C430B06A996A02F079F9002840F0BC80DB
:1024F8003046FFF789FF366BEEE7D4F8D030002579
:102508000133C4F8D030AFE090F8BA202ABB00F10C
:10251800AA075649384602F061F908B9012308E0CC
:102528005349384602F05AF910B984F8B95002E014
:10253800022384F8B930D4F8C030C4F8C430D4F8D1
:10254800C460002E00F090803946B06A02F046F967
:10255800002880F28580336BEFE790F8B9100229E4
:1025680066D090F8AA30002B62D042EA4112013AB4
:10257800282A5DD8DFE802F01520232A31464D537A
:10258800575C5C5C5C5C5C5C5C5C5C5C5C5C5C5C88
:102598005C5C5C5C5C5C5C5C151B20232A31383C11
:1025A800400000F1AA014830FFF7FCFE40E0A3F12B
:1025B80041004342434129E000F11C0108E0A3F136
:1025C80053014B424B4180F8243031E000F128019F
:1025D80004F1AA00FFF746FE2AE0A3F1570253428E
:1025E800534180F8303023E000F1AA0158301DE053
:1025F80000F1AA01683019E000F1AA013830FFF7AC
:10260800D8FE15E0302B94BF0023012384F8BC309A
:102618000EE000F1AA018830FFF7EFFE08E000F1B4
:10262800AA01983002E000F1AA017830FFF7D3FE42
:10263800D4F8C46004F1AA07B6B1D4F8C430B06ABB
:10264800996A02F0CBF878B9F26A94F8BA309A42EB
:102658000ADC03D139463046FFF7E5FE366BEBE777
:1026680002D00023C4F8C4302846F8BD864B0808B9
:102678008C4B080838B5D0F8C830242903F1010379
:1026880004460D46C0F8C8302AD090F8BB3004D8AC
:102698000A290CD00D2932D109E02A2907D02C2982
:1026A8002DD190F8A82082F02C0280F8A8200E2BBB
:1026B8004FF0000005D8234483F8AA002046FFF70E
:1026C800B5FE94F8BA30013384F8BA30002384F8A0
:1026D800BB30A5F12A035D425D4184F8A95038BD9D
:1026E8000020022384F8BB0084F8BA0084F8A8000C
:1026F80084F8B93084F8A90084F8BC0038BD0D2BE3
:102708009FBF5A1C1B1984F8BB2083F8AA5094F861
:10271800A90028B994F8A8104D4084F8A85038BDED
:10272800002038BD00F000B808B5024B1B681B68D4
:10273800019308BDB001040808B5024B1B685B682B
:10274800019308BDB001040808B5024B1B689B68DB
:10275800019308BDB001040808B5024B1B68DB688B
:10276800019308BDB001040808B5024B1B681B693A
:10277800019308BDB001040808B5024B1B685B69EA
:10278800019308BDB001040808B5024B1B681B6B18
:10279800019308BDB001040808B5024B1B681B680B
:1027A800019308BDB401040808B5024B1B685B69B6
:1027B800019308BDB401040808B5024B1B68DB6926
:1027C800019308BDB401040808B5024B1B681B6AD5
:1027D800019308BDB401040808B5024B1B685B6A85
:1027E800019308BDB401040808B5024B1B689B6A35
:1027F800019308BDB401040808B5024B1B689B6B24
:10280800019308BDB401040808B5024B1B68DB6BD3
:10281800019308BDB401040808B5024B1B685B6846
:10282800019308BD9C01040808B5024B1B681B698D
:10283800019308BD9C01040808B5024B1B685B693D
:10284800019308BD9C01040808B5024B1B68DB6EA8
:10285800019308BDB801040808B5024B1B681B6A40
:10286800019308BDD001040808B5024B1B685B6AD8
:10287800019308BDD001040808B5024B1B689B6A88
:10288800019308BDD001040808B5024B1B68DB6A38
:10289800019308BDD001040808B5024B1B681B6BE7
:1028A800019308BDD001040808B5024B1B689B6B57
:1028B800019308BDD001040808B5024B1B681B6CC6
:1028C800019308BDD001040808B5024B1B689B6939
:1028D800019308BDC401040808B5024B1B685B6A74
:1028E800019308BDC401040808B5024B1B689B6A24
:1028F800019308BDC401040808B5024B1B68DB6AD4
:10290800019308BDC401040808B5024B1B681B6B82
:10291800019308BDC401040808B5024B1B685B6B32
:10292800019308BDC401040808B5024B1B689B6BE2
:10293800019308BDC401040808B5024B1B681B6C51
:10294800019308BDC401040808B5024B1B68DB6C81
:10295800019308BDC401040808B5024B1B681B6A33
:10296800019308BDAC01040808B5024B1B685B6AFB
:10297800019308BDAC01040808B5024B1B689B6AAB
:10298800019308BDAC01040808B5024B1B68DB6A5B
:10299800019308BDAC01040808B5024B1B681B6B0A
:1029A800019308BDAC01040808B5024B1B685B6BBA
:1029B800019308BDAC01040808B5024B1B681B6CE9
:1029C800019308BDAC01040808B5024B1B681B68DD
:1029D800019308BD1C00060808B5024B1B685B681C
:1029E800019308BD1C00060808B5024B1B681B694B
:1029F800019308BD1C00060808B5024B1B685B69FB
:102A0800019308BD1C00060808B5024B1B689B69AA
:102A1800019308BD1C00060808B5024B1B68DB695A
:102A2800019308BD1C00060808B5024B1B681B6A09
:102A3800019308BD1C00060808B5024B1B685B6AB9
:102A4800019308BD1C00060808B5024B1B685B68AB
:102A5800019308BDA401040808B5024B1B685B6913
:102A6800019308BDA401040808B5024B1B68DB6A82
:102A7800019308BDA401040808B5024B1B68DB6C70
:102A8800019308BDA401040808B5024B1B685B6DDF
:102A9800019308BDA401040808B5034B1B68D3F8CB
:102AA8009030019308BD0000A401040808B5034B49
:102AB8001B68D3F89C30019308BD0000A4010408EA
:102AC80008B5024B1B681B69019308BDC8010408BF
:102AD80008B5024B1B681B68019308BDCC010408AC
:102AE80008B5024B1B689B68019308BDCC0104081C
:102AF80008B5024B1B681B6A019308BDCC0104088A
:102B080008B5024B1B68DB6B019308BDCC010408B8
:102B180008B5024B1B681B68019308BDA001040897
:102B280008B5024B1B685B68019308BDA001040847
:102B380008B5024B1B689B68019308BDA0010408F7
:102B480008B5024B1B68DB68019308BDA0010408A7
:102B580008B5024B1B68DB69019308BDA001040896
:102B680008B5024B1B685B6A019308BDA001040805
:102B780008B5024B1B68DB6A019308BDA001040875
:102B880008B5024B1B681B6B019308BDA001040824
:102B9800704710B50446FDF77EFA204610BD0000C8
:102BA80070B504460E46074B0025036040F80C5FDD
:102BB800FFF772FE30462671FFF7FEFDA56020463E
:102BC80070BD00BFC04B08084FF6FF710079FFF7D2
:102BD800E3BDC068FFF770BE400830B51860002438
:102BE8001868E5B2884206D90134082C02D040089A
:102BF8001860F5E70725024B5B5D137030BD00BF19
:102C0800C84B08082DE9F04380468FB0C0680F46CE
:102C1800FFF74AFE98F804401422002109A801F0A1
:102C2800ADFD0B232046002209A9ADF82430FFF79B
:102C3800D3FD9DF82D404CB19DF82C502DB90C9E1C
:102C48009DF834909DF8354003E00024A1462646BF
:102C580001253B790DB1002B40D19D420BD1BA68BB
:102C6800B24208D18DF820908DF82140BDF820108F
:102C7800BA89914232D023BB8DF80F300DF10F0283
:102C880004ABB9680A98FFF7A7FF3B7905B113BBF6
:102C9800AB4209D000213B7B01917C7B9DF80F2042
:102CA80098F80400009413E0BB68B342F2D38DF89F
:102CB80020908DF82140BDF82020BB899A42E9D1A7
:102CC80009E000231A4698F80400019300930121B3
:102CD800FFF79AFD02E0049BB342DBD100200FB05E
:102CE800BDE8F08308B50079FFF75EFDC0B208BD06
:102CF80030B587B00A9D044600790095FFF774FD4A
:102D08003DB902A92079FFF777FD9DF81430DB075C
:102D1800F7D407B030BD0079FFF756BD4FF69C7366
:102D280037B50D4C002563804FF6FF732846A38006
:102D38002570FFF789FE02A840F8045D2A46294657
:102D4800FFF782FD019B1E2B04D10323237011235F
:102D58006580A38003B030BDB60C002010B50446D2
:102D680001F069FD013823182046984206D20278FE
:102D7800197800F8011B03F80129F6E710BD70B5B2
:102D88000C46911E222920D82546294610B92344ED
:102D980030220EE0B0FBF2F602FB1600C1B20928A1
:102DA80005F8011B94BF3031573105F8011C304636
:102DB800EBE7994202D201F8012BFAE700232046FB
:102DC8000B70FFF7CBFF204670BD002070BD38B5F3
:102DD800031E0C4615460BDAB3F1004F4FF02D02D7
:102DE80014BF5842184601230A702A46194400E0C5
:102DF8000123FFF7C4FF204638BD10B5044600681C
:102E0800FFF78EFE204610BD10B50446006808B1D5
:102E1800FFF786FE00232360A360636010BD38B50A
:102E280004460D4600680131FFF782FE10B184E8C0
:102E38002100012038BD10B50368044613B143686A
:102E48008B4207D22046FFF7EAFF20B1A3680BB9EF
:102E580022681370012010BD70B50E461146044655
:102E68001546FFF7E8FF18B92046FFF7CDFF09E040
:102E78002A463146A560206801F075FC2268A368DF
:102E88000021D154204670BD38B5002304460360A4
:102E98004360836003730D4639B1084601F0CBFCEB
:102EA800294602462046FFF7D7FF204638BD38B5E9
:102EB800054600680C4660B16A688B689A4206D37A
:102EC800096801F095FCA368AB6000230AE0FFF7EE
:102ED80027FE23682B6063686B60A368AB600023E0
:102EE80023606360A36038BD884210B5044601D0F2
:102EF800FFF7DDFF204610BD38B505460C4641B149
:102F0800084601F098FC214602462846FFF7A4FF30
:102F180001E0FFF779FF284638BD10B504460023C5
:102F28008AB023606360A3602373084601A9FFF792
:102F38004EFF01A92046FFF7DFFF20460AB010BD6B
:102F4800F8B506460D468F180024BD420CD03368EC
:102F580015F8011B9B6830469847002801DB04449C
:102F6800F3E7002C08BF04462046F8BD08B5FEF775
:102F780053FC08BD03689B68184738B50D21054602
:102F8800FFF7F8FF0A2104462846FFF7F3FF20441D
:102F980038BD38B50546FEF73FFC04462846FFF71E
:102FA800ECFF204438BD012A98BF0A2230B50B46F1
:102FB8008BB000218DF824100DF12304B3FBF2F53A
:102FC80005FB1233DBB2092B94BF30333733DBB246
:102FD800214604F801392B46002DEFD1FEF71CFCE1
:102FE8000BB030BD10B422B90368C9B29B6810BCDD
:102FF8001847D2B210BCFFF7D6BFFFF7F3BF0CB427
:103008002DE9F04387B000AF07F1380454F8049B6A
:1030180005460E4623464A461421381D3C60FFF7F4
:103028009FFD132805D8391D2846FEF7F5FB0446F1
:1030380013E000F1080323F00703E846ADEB030DA6
:10304800411C23464A4668463C60FFF789FD6946AD
:103058002846FEF7E1FB0446C5461EB12846FFF7A1
:103068008CFF044420461C37BD46BDE8F04302B03F
:10307800704738B5046805467CB16368013B6360F6
:103088005BB9236820469B689847A368013BA36007
:103098001BB923682046DB689847284638BD0B686B
:1030A800036013B15A6801325A607047014A024BF3
:1030B8001A607047894C0808BC0C0020024B1A683B
:1030C800024B1A60704700BF04040020C00C0020A7
:1030D8000021FFF7C1BC10B50446FDF700F92046F2
:1030E80010BD13B50B46044603C88DE8030093E8EA
:1030F800030084E803009DE8030083E8030002B0AE
:1031080010BD0000034800238360034A034900F010
:10311800EFBD00BFC40C002070040020DF30080899
:1031280008B5184B33B100F0BBFB03681B6998471F
:1031380000281EDC144B33B100F082FC03681B69C5
:103148009847002818DC114B0BB1AFF30080104BE7
:103158000BB1AFF300800F4B0BB1AFF300800E4BF8
:103168007BB100F0D9FB03681B699847002806DC8F
:1031780008BDAFF30080DDE7AFF30080E3E7AFF30E
:10318800008008BD000000000000000000000000F2
:1031980000000000000000000000000008B5FFF774
:1031A800BFFFFFF749FB014B186008BDC0110020A5
:1031B8000248034A0349121A01F0D5BA00400240F6
:1031C80004400240804F080807B5002300931A46C0
:1031D8006FF07701FFF76AFC03B05DF804FB0000AD
:1031E80007B543880A2B08D0502B09D1094B1B6817
:1031F8003BB103B05DF804EB1847FFF7E5FF06E0C5
:10320800002300931A466FF07701FFF74FFC03B0D5
:103218005DF804FBD40C002038B5104C104D236821
:10322800AB42104B0CBF012200221A7002D0FFF7EC
:10323800BFFF2560FFF7F0FA01F0A8FA0A4B1BB1AF
:10324800FFF7EAFAAFF3008000210748FFF758FCC0
:10325800BDE8384000210548FFF71EBC0040024089
:103268001E1C279AD80C002000000000E93108082D
:1032780070470020704710B50446FCF70CFF204645
:1032880010BD08B508B1FFF7F6FF08BD38B5C4682A
:10329800D4B12378022B02D1E068FFF741FC6568BE
:1032A8002DB12846FDF71BF82846FCF7F4FEA56863
:1032B8002DB12846FDF713F82846FCF7ECFE20460A
:1032C800BDE83840FCF7E7BE38BD13B5044691E8C1
:1032D800050000234B600B602060626001A8019329
:1032E8000093FFF7C6FE204602B010BDF7B50C46A6
:1032F80006460F4654F8043B02AD45F8083D214602
:1033080001A8FFF7CCFE29463046FFF7DEFF01A8EB
:10331800FFF7AFFE2046FFF7ACFE3846FCF7BBFED2
:10332800304603B0F0BD826810B50AB900F0E5FC7C
:10333800C368BDE81040184708B5006800F11001DF
:10334800FFF7F1FF08BD826810B50AB900F0D5FC97
:10335800C368BDE81040184708B5006800F11001BF
:10336800FFF7F1FF08BD38B5002383608B6804467A
:103378000D462BB102229847EB68E360AB68A36067
:10338800204638BD2DE9F0414FF69C7304684FF094
:10339800020086B0B1F904208B8000230F688DF8F5
:1033A80000300B60D4E84F1F994203D1C4E8450FA1
:1033B800002DF7D102D08DF800106BE014F10C0548
:1033C8001CBFE7602282BFF35F8F18BF1F4601232F
:1033D8006370BFF35F8F04F10803002053E8006FA8
:1033E80043E80002002AF9D1BFF35F8F002E51D0C5
:1033F800FFF742FB20B129463046FFF794FF43E030
:1034080031466846FFF7AFFFE068B4F9105008B1DD
:1034180001F0F6F904901020ADF81450FCF739FECD
:10342800054630B34FF00008C0F808801820FCF7B4
:1034380030FE0446C0B1C0F8088001466846FFF770
:1034480050FE029BA268A360039B0292E268E360BD
:10345800BDF814300392A3824FF69C73ADF8143074
:10346800049BCDF8108023610D4B2C60EB600D4B55
:10347800AB600498FFF754FB6846FCF730FF002266
:1034880029460948FFF700FB3046FCF728FF30467D
:10349800FCF701FE3846FFF743FB06B0BDE8F081B4
:1034A800413308089D350808953A08082DE9F04F7A
:1034B8008BB007AD4FF0000B0646994614200C233D
:1034C8000F4690469DF850A0C5F804B0C5F808B05E
:1034D8000793FCF7DEFD044638B180F800B080F8A9
:1034E80001B0C0F804B0C0F808B00023102003945D
:1034F8000493FCF7CEFD28B1012343608360234B7E
:10350800C4600360224B049008200893FCF7C1FDB7
:10351800044628B1039B04A940F8043BFFF7BFFD0C
:1035280000955FFA8AF34A46414638460994FFF700
:10353800DFFAB8B9039B5B7803F0FF0293B94FF643
:103548009C7305A903A80592ADF81830FFF71AFF78
:103558000598FFF7E5FA05A80999FFF7C7FE06A839
:10356800FFF787FD039B04A906A80593FFF797FDBE
:1035780005A93046FFF7A9FE06A8FFF77AFD04A8BB
:10358800FFF777FD30460BB0BDE8F08FE44C080834
:1035980005370808022AF8B5044606D0032A17D0CA
:1035A800012A20D10B6803601DE018200E68FCF783
:1035B80070FD054650B13146FFF7D5FE3069B6F9C2
:1035C800147008B101F01CF92861AF8225600AE087
:1035D800046844B12069FFF7A3FA2046FCF77FFE90
:1035E8002046FCF758FD0020F8BD38B5002383605D
:1035F8008B6804460D462BB102229847EB68E360BE
:10360800AB68A360204638BD022A70B5044606D0D0
:10361800032A11D0012A17D10B68036014E0142083
:103628000E68FCF736FD054620B13146FFF7DDFF91
:10363800337C2B74256007E004682CB12046FCF726
:103648004EFE2046FCF727FD002070BDF0B50C4665
:10365800BFF35F8F87B0002350E8006F40E8003267
:10366800002AF9D1BFF35F8F002E3ED01846FFF72E
:1036780003FA074620B121463046FFF764FE2EE0E4
:10368800314601A8FFF7B1FF237810208DF81430D8
:10369800FCF7FFFC0546D0B187601420FCF7F9FC65
:1036A800044678B18760014601A8FFF71AFD039B1D
:1036B800A268A360049B0392E268E3609DF814305B
:1036C800049223740A4B2C60EB600A4BAB6001A890
:1036D800FCF705FE002229460748FFF7D5F93046D2
:1036E800FCF7FDFD3046FCF7D6FC07B0F0BD00BF87
:1036F8006133080811360808953A080830B50446B9
:1037080085B00D4668461146FFF7F0FD7CB124B23E
:1037180028460DB101F074F8029002A96846ADF888
:103728000C40FFF72FFE0298FFF7FAF91DE04FF063
:10373800010200988DF80840D0E84F3FA34203D11A
:10374800C0E8412F0029F7D102D08DF808300CE0ED
:1037580010F10C014FF0010318BF0373BFF35F8F23
:10376800043000F8033CFFF771FF01A8FFF781FC64
:1037780005B030BD704710B50446FCF78CFC2046F8
:1037880010BDF8B50F4600F10806051D002416F80F
:10379800011D0A223846FFF730FCAE42044407D028
:1037A800002CF4D02E213846FFF7E4FB0444EEE762
:1037B8002046F8BD10B59DF8084044EA032343EAC3
:1037C800024242EA0161416010BD000037B5044D74
:1037D80005609DF818500095FFF7ECFF03B030BD69
:1037E800004D08084174704770470021007CFFF7BE
:1037F8000BB90121007CFFF707B9007CFFF7FCB883
:10380800007CFFF7F1B838B50446007C0D46FFF799
:10381800F3F8002801DC607C20B12946207CFFF702
:10382800FBF8012038BD007CFFF7FEB810B5044650
:10383800FCF731FC204610BD10B504460023636038
:103848004FF47A73A360054B084623600123217463
:1038580063741146FFF7B8F8204610BD144D0808E8
:103868000022007CFFF7B8B8007CFFF7E5B8FFF747
:10387800FBBF000010B504461422002100F07EFFB3
:10388800054B20466360054BE36040F2011323813A
:103898008123238210BD00BF610D0020E00C0020B1
:1038A80030B50E4D87B001A8FFF7E4FF296811F085
:1038B800010410D12846FCF7F0FB60B101AA2146AB
:1038C8000748FFF7B9FF2846FCF7ECFB054A06490D
:1038D800034800F00DFA024807B030BDDC0C0020A8
:1038E800640E002070040020F137080810B5044663
:1038F8001422002100F042FF054B20466360054B6F
:10390800E36040F2011323818123238210BD00BFAD
:10391800140F00207C0E002010B50E4C86B001A8B4
:10392800FFF7E4FF2368DB0710D42046FCF7B5FB5C
:1039380060B101AA01210848FFF77EFF2046FCF785
:10394800B1FB064A0649044800F0D2F9024806B01D
:1039580010BD00BF780E0020000F0020700400206A
:10396800F1370808002211461046FFF7A9B80000F1
:1039780038B50B4C28252A460021204600F0FEFECB
:103988004FF0FF3363602580064C074B20462C25FB
:1039980040F8043B2A46002100F0F0FEA58038BD1F
:1039A8004810002018100020444D08087047417442
:1039B8007047007CFEF7C0BF007CFEF795BF007C17
:1039C800FEF7A2BF007CFEF797BF007CFEF7A4BFFE
:1039D80010B50446FCF75FFB204610BD70B5457C6A
:1039E80004460E4625B9007CFEF7A6FF002805DD33
:1039F8003146207CBDE87040FEF76EBF284670BD9A
:103A080010B5044608461146002262604FF47A72E7
:103A1800A260054A20742260012262741A46FEF7E9
:103A280053FF204610BD00BF504D08080023007CFE
:103A3800FEF78ABF0022FFF7F9BF007CFEF774BFCC
:103A480038B50C4D296811F0010411D12846FCF74E
:103A580024FB68B1084A2146084B0948FFF7D0FF04
:103A68002846FCF71FFB074A0749054800F040F9BC
:103A7800034838BD081100200C11002084100020D4
:103A88007010002070040020B539080810B583684C
:103A980004460BB900F031F9C3689847A3681BB115
:103AA80003222146204698472046BDE81040FCF7EF
:103AB800F2BA7047F8B5064615460C468F18BC4250
:103AC80006D0336814F8011B9B6830469847F6E720
:103AD8002846F8BD0022007CFEF73EBF0021007C8E
:103AE800FEF742BF0021007CFEF746BF0021007CA4
:103AF800FEF74ABF0021007CFEF74EBF10B5044612
:103B0800FCF7C9FA204610BD10B5044608464FF424
:103B18007A73A360044B0021207461602360FEF770
:103B28004BFF204610BD00BF804D08080021007CD7
:103B3800FEF73ABF10B504460F48FFF7ECF828B176
:103B4800A4F10D03022B01D8002010BD00F0B0F83D
:103B5800FFF7ECFF08B1012CF6D9FFF771FFFFF76B
:103B68006CFF18B1A4F11203012BEDD92E2C8CBFD8
:103B78000020012010BD00BF901100202E2838B56C
:103B880004460D460AD8FF2908D0FFF7D3FF28B10D
:103B980029462046BDE83840FEF7D6BD38BD38B5C1
:103BA80004460D46FEF7D8FDFF2810D0062804D895
:103BB8004D2323FA00F0C30709D42046FFF7BAFFC4
:103BC80028B129462046BDE83840FEF7CDBD38BDAE
:103BD80010B50446FEF7C0FD0438C0B2012808D964
:103BE8002046FFF7A7FF20B12046BDE81040FEF7AA
:103BF800C3BD002010BD10B5044609289CBF0A3477
:103C0800A4B22046FFF796FF50B103212046FEF7E5
:103C180093FD032804D12046BDE81040FEF7B4BD4B
:103C2800002010BD70B5114E114D124C00213046C8
:103C3800FEF7B6FF3046104E2A46214600F058F8E7
:103C480001213046FEF7ACFF30460C4E2A4621468D
:103C580000F04EF802213046FEF7A2FF2A46214620
:103C68003046BDE8704000F043B800BF9011002016
:103C780070040020992B0808A0110020B011002022
:103C880013B5084C00231A46194600932046FFF73F
:103C98009DFD2046044A054902B0BDE8104000F0E9
:103CA80027B800BFC4110020700400207D37080821
:103CB80038B50B4D296811F001040FD12846FCF7DF
:103CC800ECF958B121460748FFF71EFF2846FCF7D4
:103CD800E9F9054A0549034800F00AF8014838BDE2
:103CE800CC110020D011002070040020BB3A080835
:103CF8000B460146184600F019BD08B5FEF738FF17
:103D0800184B1A68D1075CBF01221A60164B1A6853
:103D1800D2075CBF01221A60144B1A68D0075CBF37
:103D280001221A60124B1A68D1075CBF01221A607F
:103D3800104B1A68D2075CBF01221A600E4B1A6832
:103D4800D0075CBF01221A600C4B1A68D1075CBF10
:103D580001221A600A4B1A68D2075CBF01221A6056
:103D6800704700BF00120020FC110020F81100204D
:103D7800F4110020F0110020EC110020E8110020BF
:103D8800E4110020244B1A68D0075CBF01221A6096
:103D9800224B1A68D1075CBF01221A60204B1A68AF
:103DA800D2075CBF01221A601E4B1A68D0075CBF9D
:103DB80001221A601C4B1A68D1075CBF01221A60E5
:103DC8001A4B1A68D2075CBF01221A60184B1A688E
:103DD800D0075CBF01221A60164B1A68D1075CBF76
:103DE80001221A60144B1A68D2075CBF01221A60BC
:103DF800124B1A68D0075CBF01221A60104B1A6870
:103E0800D1075CBF01221A600E4B1A68D2075CBF4B
:103E180001221A60704700BF301200202C120020C7
:103E28002812002024120020201200201C1200203A
:103E38001812002014120020101200200C1200206A
:103E48000812002004120020244B1A68D0075CBF17
:103E580001221A60224B1A68D1075CBF01221A603E
:103E6800204B1A68D2075CBF01221A601E4B1A68E1
:103E7800D0075CBF01221A601C4B1A68D1075CBFCF
:103E880001221A601A4B1A68D2075CBF01221A6015
:103E9800184B1A68D0075CBF01221A60164B1A68C3
:103EA800D1075CBF01221A60144B1A68D2075CBFA5
:103EB80001221A60124B1A68D0075CBF01221A60EF
:103EC800104B1A68D1075CBF01221A600E4B1A68A2
:103ED800D2075CBF01221A60704700BF6012002041
:103EE8005C120020581200205412002050120020AA
:103EF8004C120020481200204412002040120020DA
:103F08003C1200203812002034120020184B1A6886
:103F1800D1075CBF01221A60164B1A68D2075CBF32
:103F280001221A60144B1A68D0075CBF01221A607C
:103F3800124B1A68D1075CBF01221A60104B1A682D
:103F4800D2075CBF01221A600E4B1A68D0075CBF0B
:103F580001221A600C4B1A68D1075CBF01221A6053
:103F68000A4B1A68D2075CBF01221A60704700BF6B
:103F7800801200207C120020781200207412002089
:103F8800701200206C1200206812002064120020B9
:103F980081F0004102E000BF83F0004330B54FEAF2
:103FA80041044FEA430594EA050F08BF90EA020F5F
:103FB8001FBF54EA000C55EA020C7FEA645C7FEAF2
:103FC800655C00F0E2804FEA5454D4EB5555B8BF15
:103FD8006D420CDD2C4480EA020281EA030382EA86
:103FE800000083EA010180EA020281EA0303362D18
:103FF80088BF30BD11F0004F4FEA01314FF4801CEB
:104008004CEA113102D0404261EB410113F0004FFC
:104018004FEA03334CEA133302D0524263EB4303B3
:1040280094EA050F00F0A780A4F10104D5F1200E51
:104038000DDB02FA0EFC22FA05F2801841F10001AC
:1040480003FA0EF2801843FA05F359410EE0A5F180
:1040580020050EF1200E012A03FA0EFC28BF4CF0B1
:10406800020C43FA05F3C01851EBE37101F0004567
:1040780007D54FF0000EDCF1000C7EEB00006EEB74
:104088000101B1F5801F1BD3B1F5001F0CD34908FE
:104098005FEA30004FEA3C0C04F101044FEA445255
:1040A80012F5800F80F09A80BCF1004F08BF5FEADC
:1040B800500C50F1000041EB045141EA050130BDBC
:1040C8005FEA4C0C404141EB010111F4801FA4F15F
:1040D8000104E9D191F0000F04BF01460020B1FAB4
:1040E80081F308BF2033A3F10B03B3F120020CDAEC
:1040F8000C3208DD02F1140CC2F10C0201FA0CF0CA
:1041080021FA02F10CE002F11402D8BFC2F1200C2E
:1041180001FA02F120FA0CFCDCBF41EA0C019040E4
:10412800E41AA2BF01EB0451294330BD6FEA04042D
:104138001F3C1CDA0C340EDC04F11404C4F1200218
:1041480020FA04F001FA02F340EA030021FA04F32A
:1041580045EA030130BDC4F10C04C4F1200220FA81
:1041680002F001FA04F340EA0300294630BD21FABF
:1041780004F0294630BD94F0000F83F4801306BF85
:1041880081F480110134013D4EE77FEA645C18BF79
:104198007FEA655C29D094EA050F08BF90EA020F10
:1041A80005D054EA000C04BF1946104630BD91EA08
:1041B800030F1EBF0021002030BD5FEA545C05D10B
:1041C8004000494128BF41F0004130BD14F580044A
:1041D8003CBF01F5801130BD01F0004545F0FE41BE
:1041E80041F470014FF0000030BD7FEA645C1ABFF3
:1041F800194610467FEA655C1CBF0B46024650EA2A
:10420800013406BF52EA033591EA030F41F4002155
:1042180030BD00BF90F0000F04BF0021704730B5DB
:104228004FF4806404F132044FF000054FF00001B0
:1042380050E700BF90F0000F04BF0021704730B571
:104248004FF4806404F1320410F0004548BF404246
:104258004FF000013EE700BF42004FEAE2014FEA9B
:1042680031014FEA02701FBF12F07F4393F07F4F76
:1042780081F06051704792F0000F14BF93F07F4FA8
:10428800704730B54FF4607401F0004521F00041EB
:1042980020E700BF50EA010208BF704730B54FF071
:1042A80000050AE050EA010208BF704730B511F076
:1042B800004502D5404261EB41014FF4806404F1AE
:1042C80032045FEA915C3FF4DCAE4FF003025FEA30
:1042D800DC0C18BF03325FEADC0C18BF033202EBB8
:1042E800DC02C2F1200300FA03FC20FA02F001FA12
:1042F80003FE40EA0E0021FA02F11444C1E600BFB1
:1043080070B54FF0FF0C4CF4E06C1CEA11541DBF63
:104318001CEA135594EA0C0F95EA0C0F00F0DEF82E
:104328002C4481EA030621EA4C5123EA4C5350EA13
:10433800013518BF52EA033541F4801143F4801364
:1043480038D0A0FB02CE4FF00005E1FB02E506F0F5
:104358000042E0FB03E54FF00006E1FB03569CF04A
:10436800000F18BF4EF0010EA4F1FF04B6F5007F50
:1043780064F5407404D25FEA4E0E6D4146EB0606C2
:1043880042EAC62141EA55514FEAC52040EA5E504B
:104398004FEACE2EB4F1FD0C88BFBCF5E06F1ED8F5
:1043A800BEF1004F08BF5FEA500E50F1000041EB2C
:1043B800045170BD06F0004646EA010140EA0200D9
:1043C80081EA0301B4EB5C04C2BFD4EB0C0541EAFB
:1043D800045170BD41F480114FF0000E013C00F310
:1043E800AB8014F1360FDEBF002001F0004170BD34
:1043F800C4F10004203C35DA0C341BDC04F114044D
:10440800C4F1200500FA05F320FA04F001FA05F2D8
:1044180040EA020001F0004221F0004110EBD370A5
:1044280021FA04F642EB06015EEA430E08BF20EAD1
:10443800D37070BDC4F10C04C4F1200500FA04F374
:1044480020FA05F001FA04F240EA020001F0004106
:1044580010EBD37041F100015EEA430E08BF20EA79
:10446800D37070BDC4F1200500FA05F24EEA020EC1
:1044780020FA04F301FA05F243EA020321FA04F0F0
:1044880001F0004121FA04F220EA020000EBD370A7
:104498005EEA430E08BF20EAD37070BD94F0000FA7
:1044A8000FD101F00046400041EB010111F4801FDB
:1044B80008BF013CF7D041EA060195F0000F18BF8C
:1044C800704703F00046520043EB030313F4801FC8
:1044D80008BF013DF7D043EA0603704794EA0C0F82
:1044E8000CEA135518BF95EA0C0F0CD050EA410698
:1044F80018BF52EA4306D1D181EA030101F0004115
:104508004FF0000070BD50EA410606BF104619463C
:1045180052EA430619D094EA0C0F02D150EA013648
:1045280013D195EA0C0F05D152EA03361CBF104689
:1045380019460AD181EA030101F0004141F0FE4128
:1045480041F470014FF0000070BD41F0FE4141F4AC
:10455800780170BD70B54FF0FF0C4CF4E06C1CEAAC
:1045680011541DBF1CEA135594EA0C0F95EA0C0F61
:1045780000F0A7F8A4EB050481EA030E52EA03351C
:104588004FEA013100F088804FEA03334FF080553D
:1045980045EA131343EA12634FEA022245EA11156A
:1045A80045EA10654FEA00260EF000419D4208BF1B
:1045B800964244F1FD0404F5407402D25B084FEAC8
:1045C8003202B61A65EB03055B084FEA32024FF474
:1045D80080104FF4002CB6EB020E75EB030E22BFD1
:1045E800B61A754640EA0C005B084FEA3202B6EB91
:1045F800020E75EB030E22BFB61A754640EA5C0040
:104608005B084FEA3202B6EB020E75EB030E22BFCF
:10461800B61A754640EA9C005B084FEA3202B6EBD0
:10462800020E75EB030E22BFB61A754640EADC008F
:1046380055EA060E18D04FEA051545EA16754FEAF1
:1046480006164FEAC30343EA52734FEAC2025FEA0F
:104658001C1CC0D111F4801F0BD141EA00014FF09E
:1046680000004FF0004CB6E711F4801F04BF01436F
:104678000020B4F1FD0C88BFBCF5E06F3FF6AFAE8B
:10468800B5EB030C04BFB6EB020C5FEA500C50F11B
:10469800000041EB045170BD0EF0004E4EEA11319E
:1046A80014EB5C04C2BFD4EB0C0541EA045170BDA5
:1046B80041F480114FF0000E013C90E645EA060EE9
:1046C8008DE60CEA135594EA0C0F08BF95EA0C0F17
:1046D8003FF43BAF94EA0C0F0AD150EA01347FF45F
:1046E80034AF95EA0C0F7FF425AF104619462CE736
:1046F80095EA0C0F06D152EA03353FF4FDAE104699
:10470800194622E750EA410618BF52EA43067FF4E9
:10471800C5AE50EA41047FF40DAF52EA43057FF479
:10472800EBAE12E70A22002100F026B910B5054CBD
:1047380013462CB10A4601460220AFF3008010BD93
:10474800204610BD0000000010B501390244904217
:1047580007D010F8013B11F8014FA342F7D0181BFE
:1047680010BD002010BD10B5431E0A44914204D06C
:1047780011F8014B03F8014FF8E710BD0346024456
:10478800934202D003F8011BFAE7704738B5124B81
:1047980005461C68A36BD3B91820FEF7B9F943F294
:1047A8000E33A06303804AF6CD33438041F23423AD
:1047B80083804EF26D63C3804DF6EC63038105235D
:1047C80043810B23838101220023C0E90423A36BC7
:1047D80000221D615A6138BD6C04002010F8012BBD
:1047E80011F8013B012A28BF9A42F7D0D01A704726
:1047F800034611F8012B03F8012B002AF9D1704761
:10480800024B0146186800F003B800BF6C04002092
:1048180070B5064608460C4600F00DF8451C2946BA
:104828003046FEF7ADF9064618B12A462146FFF78D
:104838009AFF304670BD034613F8012B002AFBD1BE
:10484800181A01387047034610B542B111F8014BE8
:10485800013A03F8014B002CF7D11A4400E010BDCF
:10486800934202D003F8014BFAE710BD2DE9F04757
:104878000F4680463F48D0F800903D4615F8014B5A
:1048880009EB0400407800F0080000F0FF0608B1CA
:104898002F46F2E72D2C03D1BD1C7C78012603E0BE
:1048A8002B2C04BF7C78BD1C13B1102B0AD15BE004
:1048B800302C57D1287800F0DF0058284DD16C787B
:1048C80010230235002E14BF4FF0004C6FF0004C3F
:1048D800BCFBF3FA0027384603FB1ACC09EB040E9D
:1048E8009EF801E01EF0040F01D0303C0BE01EF0F2
:1048F800030E1BD0BEF1010F0CBF4FF0370E4FF067
:10490800570ECEEB0404A34210DDB7F1FF3F0AD0E7
:10491800504506D801D1644503DC03FB004001275C
:1049280001E04FF0FF3715F8014BD7E77B1C0CD19E
:10493800002E4FF0220314BF4FF000406FF00040EC
:10494800C8F800302AB9BDE8F08706B1404272B114
:1049580007B1691E1160BDE8F0873024002BB1D182
:104968000823AFE70A23ADE7302CA3D0AAE7BDE8B8
:10497800F08700BF0804002013460A460146024893
:104988000068FFF773BF00BF6C0400201D00080813
:104998005D000808890008088D000808000000006C
:1049A80000000000000000002102080800000000CC
:1049B80000000000A9030808E9030808AF02080876
:1049C80000000000000000001D020808A3020808FB
:1049D8008B02080885020808B700080819040808A7
:1049E8007F0208087902080864656661756C74209E
:1049F800004D5342004C5342003C53504953657498
:104A080074696E67732064656661756C743E003CFA
:104A180053504953657474696E6773202573256C08
:104A280075202573204D4F444525643E006461740C
:104A380061537472696E6700496E697469616C6963
:104A48007A696E6720534420436172642E2E2E00CB
:104A5800496E697469616C697A6174696F6E3A202C
:104A68004661696C656400496E697469616C697A4C
:104A78006174696F6E3A20436F6D706C657465641C
:104A880000646174614C6F672E7478740025662C1D
:104A980025662C2566006E6F206C6F636174696FE4
:104AA8006E007B226C6174223A25642C20226C6F84
:104AB8006E223A25642C20226469676176657261EA
:104AC800676531223A25642C2022616E6176657211
:104AD80061676531223A25647D00646174616C6F99
:104AE800672E7478740057726974696E6720746FE2
:104AF80020534420636172642E2E2E00446F6E652D
:104B08002077726974696E6720746F20534420613E
:104B18006E6420636C6F73696E672066696C652EBE
:104B28002E2E004552524F52206F70656E696E6787
:104B38002066696C6520746F2077726974652074CB
:104B48006F2E2E2E00646174614C6F673A2000430B
:104B58006F6C6C656374656420446174613A20000D
:104B68004552524F52206F70656E696E67206669B4
:104B78006C6520746F20726561642E2E2E0047507C
:104B8800524D43004750474741004E004E4E4500A6
:104B9800454E450045534500535345005300535374
:104BA800570057535700574E57004E4E57000000B6
:104BB8000000000000000000992B08089B2B080843
:104BC80000081018202830386C6E00666E00636F7D
:104BD80064650064657461696C000D0A00253031F4
:104BE800307520005D20002564002C200028293A1B
:104BF8002000205B00636F6465203D20002569006C
:104C080064657461696C73203D200062617564009D
:104C180053657269616C0055534253657269616CE2
:104C280031007479706500706172616D00636D6444
:104C380000696400686E64007374726D0066696C64
:104C480074006C766C0061646448616E646C6572B3
:104C58000072656D6F766548616E646C657200659B
:104C68006E756D48616E646C657273004A534F4E81
:104C780053747265616D4C6F6748616E646C6572E0
:104C880000617070006E6F6E65007472616365001C
:104C9800696E666F007761726E006572726F72007E
:104CA80070616E696300616C6C005A00252B3033AB
:104CB800643A253032750025592D256D2D2564540B
:104CC80025483A254D3A2553257A0061736374695E
:104CD8006D6500000000000000000000793208083F
:104CE8007F320808953208088B3208087B3208089A
:104CF80000000000000000008B3708087D37080816
:104D08007F3708080000000000000000F13708089D
:104D1800353808080F380808492F080809380808DE
:104D2800F3370808FB3708082F380808033808083D
:104D3800ED37080800000000000000006D39080881
:104D48000000000000000000B5390808D93908083B
:104D5800E5390808492F0808C1390808CD39080875
:104D6800C7390808D3390808B7390808BB3908080B
:104D78000000000000000000BB3A0808053B0808D6
:104D8800DD3A0808BD3A0808E53A0808ED3A080887
:104D9800F53A0808FD3A08080020202020202020A5
:104DA80020202828282828202020202020202020D3
:104DB80020202020202020202088101010101010E3
:104DC800101010101010101010040404040404042F
:104DD80004040410101010101010414141414141C9
:104DE80001010101010101010101010101010101AB
:104DF80001010101101010101010424242424242BB
:104E0800020202020202020202020202020202027A
:104E18000202020210101010200000000000000022
:104E2800000000000000000000000000000000007A
:104E3800000000000000000000000000000000006A
:104E4800000000000000000000000000000000005A
:104E5800000000000000000000000000000000004A
:104E6800000000000000000000000000000000003A
:104E7800000000000000000000000000000000002A
:104E8800000000000000000000000000000000001A
:104E9800000000000000000000000000000000000A
:104EA80000000000000000000000000000000000FA
:104EB80000000000000000000000000000000000EA
:104EC80000000000000000000000000000000000DA
:104ED80000000000000000000000000000000000CA
:104EE80000000000000000000000000000000000BA
:104EF800000000000000000000000000BD090808D4
:104F08001D0B0808210B0808491108084D1108084D
:104F180051110808551108081D18080841180808F3
:104F280045180808691B08086D1B0808711B080844
:104F3800AB200808AF200808B32008085921080842
:104F48002D270808252D0808B5300808C530080899
:104F58000D310808793908082D3C0808893C0808EB
:104F6800093D08088D3D0808513E0808153F080806
:084F7800000000000000000031
:044F8000000000002D
:104F840007000000D34C0808A04D080800000000EA
:104F9400A44E0808C44E0808E44E080800000000A7
:104FA4000000000000000000000000008A4B080818
:104FB40000000000000000000000000000000000ED
:104FC40000000000000000000000000000000000DD
:104FD40000000000000000000000000000000000CD
:104FE4000000000000000000000000000C0400208D
:104FF400FFFFFFFF00000102030405060708090A7A
:105004000B0C0D0E0F101112131415161718191A74
:085014001B1C1D1E1F202800BB
:04501C00785634127C
:0400000508080018CF
:00000001FF
